{
    "contractName": "Main",
    "abi": [
        {
            "inputs": [],
            "stateMutability": "nonpayable",
            "type": "constructor"
        },
        {
            "inputs": [
                {
                    "internalType": "address",
                    "name": "owner",
                    "type": "address"
                }
            ],
            "name": "OwnableInvalidOwner",
            "type": "error"
        },
        {
            "inputs": [
                {
                    "internalType": "address",
                    "name": "account",
                    "type": "address"
                }
            ],
            "name": "OwnableUnauthorizedAccount",
            "type": "error"
        },
        {
            "anonymous": false,
            "inputs": [
                {
                    "indexed": false,
                    "internalType": "string",
                    "name": "collectionName",
                    "type": "string"
                },
                {
                    "indexed": false,
                    "internalType": "address",
                    "name": "collectionAddress",
                    "type": "address"
                }
            ],
            "name": "CollectionCreated",
            "type": "event"
        },
        {
            "anonymous": false,
            "inputs": [
                {
                    "indexed": true,
                    "internalType": "address",
                    "name": "previousOwner",
                    "type": "address"
                },
                {
                    "indexed": true,
                    "internalType": "address",
                    "name": "newOwner",
                    "type": "address"
                }
            ],
            "name": "OwnershipTransferred",
            "type": "event"
        },
        {
            "inputs": [
                {
                    "internalType": "string",
                    "name": "_name",
                    "type": "string"
                },
                {
                    "components": [
                        {
                            "internalType": "string",
                            "name": "cardName",
                            "type": "string"
                        },
                        {
                            "internalType": "string",
                            "name": "id",
                            "type": "string"
                        },
                        {
                            "internalType": "address",
                            "name": "owner",
                            "type": "address"
                        },
                        {
                            "internalType": "string",
                            "name": "imgURL",
                            "type": "string"
                        },
                        {
                            "internalType": "string",
                            "name": "setName",
                            "type": "string"
                        }
                    ],
                    "internalType": "struct Collection.Card[]",
                    "name": "data",
                    "type": "tuple[]"
                }
            ],
            "name": "createBoosters",
            "outputs": [],
            "stateMutability": "nonpayable",
            "type": "function"
        },
        {
            "inputs": [
                {
                    "internalType": "address",
                    "name": "_ownerCard",
                    "type": "address"
                }
            ],
            "name": "listCards",
            "outputs": [
                {
                    "components": [
                        {
                            "internalType": "string",
                            "name": "cardName",
                            "type": "string"
                        },
                        {
                            "internalType": "string",
                            "name": "id",
                            "type": "string"
                        },
                        {
                            "internalType": "address",
                            "name": "owner",
                            "type": "address"
                        },
                        {
                            "internalType": "string",
                            "name": "imgURL",
                            "type": "string"
                        },
                        {
                            "internalType": "string",
                            "name": "setName",
                            "type": "string"
                        }
                    ],
                    "internalType": "struct Collection.Card[]",
                    "name": "",
                    "type": "tuple[]"
                }
            ],
            "stateMutability": "view",
            "type": "function"
        },
        {
            "inputs": [],
            "name": "listingPrice",
            "outputs": [
                {
                    "internalType": "uint256",
                    "name": "",
                    "type": "uint256"
                }
            ],
            "stateMutability": "view",
            "type": "function"
        },
        {
            "inputs": [
                {
                    "internalType": "address",
                    "name": "_buyer",
                    "type": "address"
                }
            ],
            "name": "openBooster",
            "outputs": [],
            "stateMutability": "nonpayable",
            "type": "function"
        },
        {
            "inputs": [],
            "name": "owner",
            "outputs": [
                {
                    "internalType": "address",
                    "name": "",
                    "type": "address"
                }
            ],
            "stateMutability": "view",
            "type": "function"
        },
        {
            "inputs": [],
            "name": "renounceOwnership",
            "outputs": [],
            "stateMutability": "nonpayable",
            "type": "function"
        },
        {
            "inputs": [
                {
                    "internalType": "address",
                    "name": "newOwner",
                    "type": "address"
                }
            ],
            "name": "transferOwnership",
            "outputs": [],
            "stateMutability": "nonpayable",
            "type": "function"
        }
    ],
    "bytecode": "608080604052346081573315606e575f8054336001600160a01b0319821681178355916001600160a01b03909116907f8be0079c531659141344cd1fd0a4f28419497f9722a3daafe3b4186f6b6457e09080a3670de0b6b3a76400006005555f600455612e6a90816100868239f35b631e4fbdf760e01b5f525f60045260245ffd5b5f80fdfe60806040526004361015610011575f80fd5b5f3560e01c806332976a4e1461064257806358181916146102b7578063715018a6146102605780637e2a6351146101335780638da5cb5b1461010c578063c78f19f9146100ef5763f2fde38b14610066575f80fd5b346100eb5760203660031901126100eb5761007f610aeb565b610087610d0e565b6001600160a01b031680156100d8575f80546001600160a01b03198116831782556001600160a01b0316907f8be0079c531659141344cd1fd0a4f28419497f9722a3daafe3b4186f6b6457e09080a3005b631e4fbdf760e01b5f525f60045260245ffd5b5f80fd5b346100eb575f3660031901126100eb576020600554604051908152f35b346100eb575f3660031901126100eb575f546040516001600160a01b039091168152602090f35b346100eb5760203660031901126100eb5761014c610aeb565b610154610d0e565b5f905b60035482101561020f5760208061017661017085610b8e565b50610c28565b604051928184925191829101835e60019082019081520301902054604051636407db7f60e11b81526001600160a01b039091169290602081600481875afa90811561021b575f91610226575b506101d1576001019150610157565b50813b156100eb57604051637e2a635160e01b81526001600160a01b039091166004820152905f908290602490829084905af1801561021b57610211575b005b5f61020f91610a52565b6040513d5f823e3d90fd5b90506020813d8211610258575b8161024060209383610a52565b810103126100eb575180151581036100eb57846101c2565b3d9150610233565b346100eb575f3660031901126100eb57610278610d0e565b5f80546001600160a01b0319811682556001600160a01b03167f8be0079c531659141344cd1fd0a4f28419497f9722a3daafe3b4186f6b6457e08280a3005b346100eb5760203660031901126100eb576102d0610aeb565b600454906102dd82610ad4565b916102eb6040519384610a52565b8083526102fa601f1991610ad4565b015f5b81811061060a575050600354905f805b83811061037b57846040518091602082016020835281518091526040830190602060408260051b8601019301915f905b82821061034c57505050500390f35b9193600191939550602061036b8192603f198a82030186528851610b25565b960192019201859493919261033d565b61038761017082610b8e565b60405181519060208301918083835e60019082019081528190036020019020546001600160a01b03166103bf575b505060010161030d565b6004915f916040989497985191518091835e600190820190815281900360200190205460405163b0df9e5360e01b815292839182906001600160a01b03165afa90811561021b575f91610495575b506001600160a01b038416935f5b82518110156104875761042e8184610bf2565b5160408101516001600160a01b03168714801561047f575b610454575b5060010161041b565b94906104788261046660019491610c06565b976104718289610bf2565b5286610bf2565b509061044b565b508615610446565b5093505093926001866103b5565b90503d805f833e6104a68183610a52565b8101906020818303126100eb578051906001600160401b0382116100eb57019080601f830112156100eb578151916104dd83610ad4565b926104eb6040519485610a52565b80845260208085019160051b830101918383116100eb5760208101915b83831061051a5750505050508661040d565b82516001600160401b0381116100eb5782019060a0828703601f1901126100eb576040519061054882610a37565b60208301516001600160401b0381116100eb5787602061056a92860101610cc8565b825260408301516001600160401b0381116100eb5787602061058e92860101610cc8565b602083015260608301516001600160a01b03811681036100eb57604083015260808301516001600160401b0381116100eb578760206105cf92860101610cc8565b606083015260a0830151916001600160401b0383116100eb576105fa88602080969581960101610cc8565b6080820152815201920191610508565b60209060405161061981610a37565b606081526060838201525f604082015260608082015260606080820152828287010152016102fd565b346100eb5760403660031901126100eb576004356001600160401b0381116100eb57610672903690600401610a8e565b6024356001600160401b0381116100eb57366023820112156100eb57806004013561069c81610ad4565b916106aa6040519384610a52565b8183526024602084019260051b820101903682116100eb5760248101925b8284106109435785856106d9610d0e565b6040516121008082018281106001600160401b0382111761091c57602061070b918493610d3585398181520185610b01565b03905ff091821561021b5760405192815193602081818501968088835e810160018152030190209060018060a01b03166bffffffffffffffffffffffff60a01b8254161790556003546801000000000000000081101561091c578060016107759201600355610b8e565b6109305781516001600160401b03811161091c576107938254610bba565b601f81116108d7575b50806020601f8211600114610876575f9161086b575b508160011b915f199060031b1c19161790555b5f5b825181101561020f576107da8184610bf2565b519060405183518087835e60019082019081528190036020019020546001600160a01b0316803b156100eb57604051630316a0bd60e41b815260206004820152925f918491829084908290610833906024830190610b25565b03925af191821561021b5760019261085b575b50610852600454610c06565b600455016107c7565b5f61086591610a52565b85610846565b9050830151866107b2565b5f8481528181209250601f198416905b8181106108bf575090836001949392106108a7575b5050811b0190556107c5565b8501515f1960f88460031b161c19169055868061089b565b9192602060018192868a015181550194019201610886565b825f5260205f20601f830160051c81019160208410610912575b601f0160051c01905b818110610907575061079c565b5f81556001016108fa565b90915081906108f1565b634e487b7160e01b5f52604160045260245ffd5b634e487b7160e01b5f525f60045260245ffd5b83356001600160401b0381116100eb57820160a060231982360301126100eb576040519161097083610a37565b60248201356001600160401b0381116100eb576109939060243691850101610a8e565b835260448201356001600160401b0381116100eb576109b89060243691850101610a8e565b602084015260648201356001600160a01b03811681036100eb57604084015260848201356001600160401b0381116100eb576109fa9060243691850101610a8e565b606084015260a4820135926001600160401b0384116100eb57610a27602094936024869536920101610a8e565b60808201528152019301926106c8565b60a081019081106001600160401b0382111761091c57604052565b90601f801991011681019081106001600160401b0382111761091c57604052565b6001600160401b03811161091c57601f01601f191660200190565b81601f820112156100eb57803590610aa582610a73565b92610ab36040519485610a52565b828452602083830101116100eb57815f926020809301838601378301015290565b6001600160401b03811161091c5760051b60200190565b600435906001600160a01b03821682036100eb57565b805180835260209291819084018484015e5f828201840152601f01601f1916010190565b610b8b916080610b7a610b56610b44855160a0865260a0860190610b01565b60208601518582036020870152610b01565b60018060a01b03604086015116604085015260608501518482036060860152610b01565b920151906080818403910152610b01565b90565b600354811015610ba65760035f5260205f2001905f90565b634e487b7160e01b5f52603260045260245ffd5b90600182811c92168015610be8575b6020831014610bd457565b634e487b7160e01b5f52602260045260245ffd5b91607f1691610bc9565b8051821015610ba65760209160051b010190565b5f198114610c145760010190565b634e487b7160e01b5f52601160045260245ffd5b9060405191825f825492610c3b84610bba565b8084529360018116908115610ca65750600114610c62575b50610c6092500383610a52565b565b90505f9291925260205f20905f915b818310610c8a575050906020610c60928201015f610c53565b6020919350806001915483858901015201910190918492610c71565b905060209250610c6094915060ff191682840152151560051b8201015f610c53565b81601f820112156100eb57805190610cdf82610a73565b92610ced6040519485610a52565b828452602083830101116100eb57815f9260208093018386015e8301015290565b5f546001600160a01b03163303610d2157565b63118cdaa760e01b5f523360045260245ffdfe608060405234610492576121008038038061001981610496565b928339810190602081830312610492578051906001600160401b038211610492570181601f82011215610492578051906001600160401b0382116102cf5761006a601f8301601f1916602001610496565b928284526020838301011161049257815f9260208093018386015e830101526100936040610496565b60048152632825a6a760e11b60208201528151916001600160401b0383116102cf575f54600181811c91168015610488575b60208210146102b157601f8111610426575b50602092601f81116001146103c757809192935f916103bc575b508160011b915f199060031b1c1916175f555b81516001600160401b0381116102cf57600154600181811c911680156103b2575b60208210146102b157601f811161034f575b50602092601f82116001146102ee57928192935f926102e3575b50508160011b915f199060031b1c1916176001555b80516001600160401b0381116102cf57600a54600181811c911680156102c5575b60208210146102b157601f811161024e575b50602091601f82116001146101ee579181925f926101e3575b50508160011b915f199060031b1c191617600a555b600160ff19600c541617600c55604051611c4490816104bc8239f35b015190505f806101b2565b601f19821692600a5f52805f20915f5b8581106102365750836001951061021e575b505050811b01600a556101c7565b01515f1960f88460031b161c191690555f8080610210565b919260206001819286850151815501940192016101fe565b600a5f527fc65a7bb8d6351c1cf70c95a316cc6a92839c986682d98bc35f958f4883f9d2a8601f830160051c810191602084106102a7575b601f0160051c01905b81811061029c5750610199565b5f815560010161028f565b9091508190610286565b634e487b7160e01b5f52602260045260245ffd5b90607f1690610187565b634e487b7160e01b5f52604160045260245ffd5b015190505f80610151565b601f1982169360015f52805f20915f5b868110610337575083600195961061031f575b505050811b01600155610166565b01515f1960f88460031b161c191690555f8080610311565b919260206001819286850151815501940192016102fe565b60015f527fb10e2d527612073b26eecdfd717e6a320cf44b4afac2b0732d9fcbe2b7fa0cf6601f830160051c810191602084106103a8575b601f0160051c01905b81811061039d5750610137565b5f8155600101610390565b9091508190610387565b90607f1690610125565b90508201515f6100f1565b601f198116935f8052805f20905f5b86811061040e5750826001949596106103f6575b5050811b015f55610104565b8401515f1960f88460031b161c191690555f806103ea565b909160206001819285880151815501930191016103d6565b5f80527f290decd9548b62a8d60345a988386fc84ba6bc95484008f6362f93160ef3e563601f850160051c8101916020861061047e575b601f0160051c01905b81811061047357506100d7565b5f8155600101610466565b909150819061045d565b90607f16906100c5565b5f80fd5b6040519190601f01601f191682016001600160401b038111838210176102cf5760405256fe6080806040526004361015610012575f80fd5b5f3560e01c90816301ffc9a7146115015750806306fdde031461145f578063081812fc14611423578063095ea7b31461133957806318160ddd1461131c57806323b872dd146113055780632f745c5914611293578063316a0bd014610cc057806333fe16e614610c8857806342842e0e14610c595780634f6ccce714610bd55780636352211e14610ba557806364e2c857146107ed57806370a08231146107c25780637e2a63511461070e5780638dc107681461065957806395d89b41146105b4578063a07ab387146102db578063a22cb46514610519578063b0df9e5314610369578063b88d4fde146102fd578063c80fb6fe146102db578063c87b56dd1461026c578063e5326ab11461018a5763e985e9c51461012f575f80fd5b34610186576040366003190112610186576101486115aa565b6101506115c0565b9060018060a01b03165f52600560205260405f209060018060a01b03165f52602052602060ff60405f2054166040519015158152f35b5f80fd5b34610186575f366003190112610186576040515f600a546101aa81611704565b808452906001811690811561024857506001146101ea575b6101e6836101d28185038261162b565b604051918291602083526020830190611586565b0390f35b600a5f9081527fc65a7bb8d6351c1cf70c95a316cc6a92839c986682d98bc35f958f4883f9d2a8939250905b80821061022e575090915081016020016101d26101c2565b919260018160209254838588010152019101909291610216565b60ff191660208086019190915291151560051b840190910191506101d290506101c2565b3461018657602036600319011261018657600435600b548110156102a2576101d2600361029b6101e6936116e8565b500161173c565b60405162461bcd60e51b81526020600482015260116024820152702737b732bc34b9ba32b73a103a37b5b2b760791b6044820152606490fd5b34610186575f36600319011261018657602060ff600c54166040519015158152f35b34610186576080366003190112610186576103166115aa565b61031e6115c0565b90604435606435926001600160401b038411610186573660238501121561018657610356610367943690602481600401359101611667565b926103628383836117dc565b611aeb565b005b34610186575f36600319011261018657600b546001600160401b038111610505576040519061039e60208260051b018361162b565b808252602082019081600b5f527f0175b7a638427703f0dbe7bb9bbf987a2551717b34e79f33b5b1008d1fa01db95f915b83831061049757848660405191829160208301906020845251809152604083019060408160051b85010192915f905b82821061040d57505050500390f35b919360019193955060206104878192603f198a82030186528851906080610476610453610443855160a0865260a0860190611586565b8786015185820389870152611586565b888060a01b03604086015116604085015260608501518482036060860152611586565b920151906080818403910152611586565b96019201920185949391926103fe565b600560206001926040516104aa81611610565b6104b38661173c565b81526104c085870161173c565b83820152848060a01b0360028701541660408201526104e16003870161173c565b60608201526104f26004870161173c565b60808201528152019201920191906103cf565b634e487b7160e01b5f52604160045260245ffd5b34610186576040366003190112610186576105326115aa565b60243590811515809203610186576001600160a01b03169081156105a157335f52600560205260405f20825f5260205260405f2060ff1981541660ff83161790556040519081527f17307eab39ab6107e8899845ad3d59bd9653f200f220920489ca2b5937696c3160203392a3005b50630b61174360e31b5f5260045260245ffd5b34610186575f366003190112610186576040515f6001546105d481611704565b808452906001811690811561024857506001146105fb576101e6836101d28185038261162b565b60015f9081527fb10e2d527612073b26eecdfd717e6a320cf44b4afac2b0732d9fcbe2b7fa0cf6939250905b80821061063f575090915081016020016101d26101c2565b919260018160209254838588010152019101909291610627565b3461018657602036600319011261018657600435600b54811015610186576106836106df916116e8565b506101e66106908261173c565b916107006106a06001830161173c565b9160018060a01b03600282015416906106ed6106ca60046106c36003850161173c565b930161173c565b9460405198899860a08a5260a08a0190611586565b9088820360208a0152611586565b9160408701528582036060870152611586565b908382036080850152611586565b34610186576020366003190112610186576107276115aa565b600160ff600c5416151503610186576001600160a01b03165f5b600d548110156107b657610754816116bb565b90549060031b1c90303b1561018657604051916364e2c85760e01b835283600484015260248301525f8260448183305af19182156107ab5760019261079b575b5001610741565b5f6107a59161162b565b83610794565b6040513d5f823e3d90fd5b600c805460ff19169055005b346101865760203660031901126101865760206107e56107e06115aa565b611a86565b604051908152f35b34610186576040366003190112610186576108066115aa565b60243590600b54821015610b6a576020604051610823828261162b565b5f81526001600160a01b038316928315610b57575f8581526002845260409020546001600160a01b031680158015919082610b26575b865f526003865260405f2060018154019055875f526002865260405f20876bffffffffffffffffffffffff60a01b8254161790558787837fddf252ad1be2c89b69c2b068fc378daa952ba7f163c4a11628f55a4df523b3ef5f80a415610a9d57600854875f526009865260405f20556108d187611a61565b858103610a4e575b50610a3b573b610929575b505060026108f1836116e8565b500180546001600160a01b031916821790557ff1d8325e619510025c0145d0ccf02dc2257510cbbe1d2b4f7d18f13b4f73ef275f80a3005b81610966916040959394955180938192630a85bd0160e11b83523360048401525f6024840152866044840152608060648401526084830190611586565b03815f885af15f91816109fb575b506109c75750503d156109c0573d61098b8161164c565b90610999604051928361162b565b81523d5f8383013e5b805191826109bd5783633250574960e11b5f5260045260245ffd5b01fd5b60606109a2565b909291506001600160e01b03191663757a42ff60e11b016109e95782806108e4565b633250574960e11b5f5260045260245ffd5b9091508381813d8311610a34575b610a13818361162b565b8101031261018657516001600160e01b031981168103610186579085610974565b503d610a09565b6339e3563760e11b5f525f60045260245ffd5b610a5783611a86565b5f198101908111610a8957865f526006865260405f20815f5286528760405f2055875f526007865260405f20556108d9565b634e487b7160e01b5f52601160045260245ffd5b8086146108d157610aad81611a86565b875f526007865260405f2054818103610aea575b50875f52600786525f6040812055815f526006865260405f20905f5285525f60408120556108d1565b825f526006875260405f20825f52875260405f2054835f526006885260405f20825f5288528060405f20555f526007875260405f205588610ac1565b5f8881526004602052604080822080546001600160a01b031916905583825260038852902080545f19019055610859565b633250574960e11b5f525f60045260245ffd5b60405162461bcd60e51b815260206004820152601360248201527224b73b30b634b21031b0b93210373ab6b132b960691b6044820152606490fd5b34610186576020366003190112610186576020610bc3600435611ab7565b6040516001600160a01b039091168152f35b3461018657602036600319011261018657600435600854811015610c4357600854811015610c2f5760085f527ff3f7a9fe364faab93b216da50a3214154f22a0a2b415b23a84c8169e8b636ee30154604051908152602090f35b634e487b7160e01b5f52603260045260245ffd5b63295f44f760e21b5f525f60045260245260445ffd5b3461018657610367610c6a366115d6565b9060405192610c7a60208561162b565b5f84526103628383836117dc565b3461018657602036600319011261018657600435600d5481101561018657610cb16020916116bb565b90549060031b1c604051908152f35b34610186576020366003190112610186576004356001600160401b0381116101865760a0600319823603011261018657604051610cfc81611610565b81600401356001600160401b03811161018657610d1f906004369185010161169d565b815260248201356001600160401b03811161018657610d44906004369185010161169d565b602082019081526044830135929091906001600160a01b0384168403610186576040820193845260648101356001600160401b03811161018657610d8e906004369184010161169d565b90606083019182526084810135906001600160401b038211610186576004610db9923692010161169d565b9360808301948552600b5493600160401b8510156105055760018501600b55610de1856116e8565b94909461128057518051906001600160401b038211610505578190610e068754611704565b601f8111611230575b50602090601f83116001146111cd575f926111c2575b50508160011b915f199060031b1c19161784555b51805160018501916001600160401b038211610505578190610e5b8454611704565b601f8111611172575b50602090601f831160011461110f575f92611104575b50508160011b915f199060031b1c19161790555b516002830180546001600160a01b0319166001600160a01b039290921691909117905551805160038301916001600160401b03821161050557610ed18354611704565b601f81116110bf575b50602090601f8311600114611058576004949392915f918361104d575b50508160011b915f199060031b1c19161790555b0191519182516001600160401b03811161050557610f298254611704565b601f8111611008575b506020601f8211600114610fa757819293945f92610f9c575b50508160011b915f199060031b1c19161790555b600d5490600160401b82101561050557610f848260016103679401600d55600d6116d3565b90919082549060031b91821b915f19901b1916179055565b015190508480610f4b565b601f19821690835f52805f20915f5b818110610ff057509583600195969710610fd8575b505050811b019055610f5f565b01515f1960f88460031b161c19169055848080610fcb565b9192602060018192868b015181550194019201610fb6565b825f5260205f20601f830160051c81019160208410611043575b601f0160051c01905b8181106110385750610f32565b5f815560010161102b565b9091508190611022565b015190508780610ef7565b90601f19831691845f52815f20925f5b8181106110a757509160019391856004989796941061108f575b505050811b019055610f0b565b01515f1960f88460031b161c19169055878080611082565b92936020600181928786015181550195019301611068565b835f5260205f20601f840160051c810191602085106110fa575b601f0160051c01905b8181106110ef5750610eda565b5f81556001016110e2565b90915081906110d9565b015190508880610e7a565b5f8581528281209350601f198516905b81811061115a5750908460019594939210611142575b505050811b019055610e8e565b01515f1960f88460031b161c19169055888080611135565b9293602060018192878601518155019501930161111f565b909150835f5260205f20601f840160051c810191602085106111b8575b90601f859493920160051c01905b8181106111aa5750610e64565b5f815584935060010161119d565b909150819061118f565b015190508880610e25565b5f8881528281209350601f198516905b8181106112185750908460019594939210611200575b505050811b018455610e39565b01515f1960f88460031b161c191690558880806111f3565b929360206001819287860151815501950193016111dd565b909150865f5260205f20601f840160051c81019160208510611276575b90601f859493920160051c01905b8181106112685750610e0f565b5f815584935060010161125b565b909150819061124d565b634e487b7160e01b5f525f60045260245ffd5b34610186576040366003190112610186576112ac6115aa565b602435906112b981611a86565b8210156112e85760018060a01b03165f52600660205260405f20905f52602052602060405f2054604051908152f35b63295f44f760e21b5f5260018060a01b031660045260245260445ffd5b3461018657610367611316366115d6565b916117dc565b34610186575f366003190112610186576020600854604051908152f35b34610186576040366003190112610186576113526115aa565b60243561135e81611ab7565b33151580611410575b806113e3575b6113d05781906001600160a01b0384811691167f8c5be1e5ebec7d5bd14f71427d1e84f3dd0314c0f7b2291e5b200ac8c7c3b9255f80a45f90815260046020526040902080546001600160a01b0319166001600160a01b03909216919091179055005b63a9fbf51f60e01b5f523360045260245ffd5b506001600160a01b0381165f90815260056020908152604080832033845290915290205460ff161561136d565b506001600160a01b038116331415611367565b346101865760203660031901126101865760043561144081611ab7565b505f526004602052602060018060a01b0360405f205416604051908152f35b34610186575f366003190112610186576040515f5f5461147e81611704565b808452906001811690811561024857506001146114a5576101e6836101d28185038261162b565b5f8080527f290decd9548b62a8d60345a988386fc84ba6bc95484008f6362f93160ef3e563939250905b8082106114e7575090915081016020016101d26101c2565b9192600181602092548385880101520191019092916114cf565b34610186576020366003190112610186576004359063ffffffff60e01b82168092036101865760209163780e9d6360e01b8114908115611543575b5015158152f35b6380ac58cd60e01b811491508115611575575b8115611564575b508361153c565b6301ffc9a760e01b1490508361155d565b635b5e139f60e01b81149150611556565b805180835260209291819084018484015e5f828201840152601f01601f1916010190565b600435906001600160a01b038216820361018657565b602435906001600160a01b038216820361018657565b6060906003190112610186576004356001600160a01b038116810361018657906024356001600160a01b0381168103610186579060443590565b60a081019081106001600160401b0382111761050557604052565b90601f801991011681019081106001600160401b0382111761050557604052565b6001600160401b03811161050557601f01601f191660200190565b9291926116738261164c565b91611681604051938461162b565b829481845281830111610186578281602093845f960137010152565b9080601f83011215610186578160206116b893359101611667565b90565b600d54811015610c2f57600d5f5260205f2001905f90565b8054821015610c2f575f5260205f2001905f90565b600b54811015610c2f57600b5f52600560205f20910201905f90565b90600182811c92168015611732575b602083101461171e57565b634e487b7160e01b5f52602260045260245ffd5b91607f1691611713565b9060405191825f82549261174f84611704565b80845293600181169081156117ba5750600114611776575b506117749250038361162b565b565b90505f9291925260205f20905f915b81831061179e575050906020611774928201015f611767565b6020919350806001915483858901015201910190918492611785565b90506020925061177494915060ff191682840152151560051b8201015f611767565b9091906001600160a01b0383168015610b57575f838152600260205260409020546001600160a01b031693331515806119d1575b508415801561199e575b825f52600360205260405f2060018154019055845f52600260205260405f20836bffffffffffffffffffffffff60a01b8254161790558483877fddf252ad1be2c89b69c2b068fc378daa952ba7f163c4a11628f55a4df523b3ef5f80a41561190c57600854845f52600960205260405f205561189584611a61565b8185036118cc575b50506001600160a01b03168083036118b457505050565b6364283d7b60e01b5f5260045260245260445260645ffd5b6118d590611a86565b5f19810191908211610a89575f52600660205260405f20815f526020528260405f2055825f52600760205260405f20555f8061189d565b8482146118955761191c85611a86565b845f52600760205260405f205481810361195d575b50845f5260076020525f6040812055855f52600660205260405f20905f526020525f6040812055611895565b865f52600660205260405f20825f5260205260405f2054875f52600660205260405f20825f526020528060405f20555f52600760205260405f20555f611931565b5f85815260046020526040902080546001600160a01b0319169055855f52600360205260405f205f19815401905561181a565b80611a10575b156119e2575f611810565b83856119fa57637e27328960e01b5f5260045260245ffd5b63177e802f60e01b5f523360045260245260445ffd5b503385148015611a3f575b806119d757505f848152600460205260409020546001600160a01b031633146119d7565b505f85815260056020908152604080832033845290915290205460ff16611a1b565b60085490600160401b82101561050557610f84826001611774940160085560086116d3565b6001600160a01b03168015611aa4575f52600360205260405f205490565b6322718ad960e21b5f525f60045260245ffd5b5f818152600260205260409020546001600160a01b0316908115611ad9575090565b637e27328960e01b5f5260045260245ffd5b9291813b611afa575b50505050565b604051630a85bd0160e11b81523360048201526001600160a01b0394851660248201526044810191909152608060648201529216919060209082908190611b45906084830190611586565b03815f865af15f9181611bc9575b50611ba857503d15611ba1573d611b698161164c565b90611b77604051928361162b565b81523d5f602083013e5b80519081611b9c5782633250574960e11b5f5260045260245ffd5b602001fd5b6060611b81565b6001600160e01b03191663757a42ff60e11b016109e957505f808080611af4565b9091506020813d602011611c06575b81611be56020938361162b565b8101031261018657516001600160e01b03198116810361018657905f611b53565b3d9150611bd856fea2646970667358221220e98d01ba163c61c7f91c2f127a5cf23b26efd593df1a45d5453ebab9b8ecf26364736f6c634300081c0033a2646970667358221220bd338a7a1dff06c4522ee90d3af168bcbe3c8741a0edc3046b80ceed53f12e1064736f6c634300081c0033",
    "sourcePath": "/home/arnaud_u/collectible-card-game-daar/contracts/src/Main.sol",
    "compiler": {
        "name": "solc",
        "version": "0.8.28+commit.7893614a"
    },
    "functionHashes": {
        "createBoosters(string,(string,string,address,string,string)[])": "32976a4e",
        "listCards(address)": "58181916",
        "listingPrice()": "c78f19f9",
        "openBooster(address)": "7e2a6351",
        "owner()": "8da5cb5b",
        "renounceOwnership()": "715018a6",
        "transferOwnership(address)": "f2fde38b"
    },
    "gasEstimates": {
        "creation": {
            "codeDepositCost": "2376400",
            "executionCost": "55473",
            "totalCost": "2431873"
        },
        "external": {
            "createBoosters(string,(string,string,address,string,string)[])": "infinite",
            "listCards(address)": "infinite",
            "listingPrice()": "2358",
            "openBooster(address)": "infinite",
            "owner()": "2359",
            "renounceOwnership()": "28086",
            "transferOwnership(address)": "28291"
        }
    }
}